{
    "contractName": "SimpleStorage",
    "abi": [
        {
            "anonymous": false,
            "inputs": [
                {
                    "indexed": false,
                    "internalType": "uint256",
                    "name": "_val",
                    "type": "uint256"
                }
            ],
            "name": "valueChanged",
            "type": "event"
        },
        {
            "inputs": [],
            "name": "greet",
            "outputs": [
                {
                    "internalType": "string",
                    "name": "",
                    "type": "string"
                }
            ],
            "stateMutability": "view",
            "type": "function"
        },
        {
            "inputs": [],
            "name": "read",
            "outputs": [
                {
                    "internalType": "uint256",
                    "name": "",
                    "type": "uint256"
                }
            ],
            "stateMutability": "view",
            "type": "function"
        },
        {
            "inputs": [
                {
                    "internalType": "string",
                    "name": "newGreeter",
                    "type": "string"
                }
            ],
            "name": "setGreet",
            "outputs": [],
            "stateMutability": "nonpayable",
            "type": "function"
        },
        {
            "inputs": [
                {
                    "internalType": "uint256",
                    "name": "newValue",
                    "type": "uint256"
                }
            ],
            "name": "write",
            "outputs": [],
            "stateMutability": "nonpayable",
            "type": "function"
        }
    ],
    "bytecode": "608060405234801561001057600080fd5b5061036b806100206000396000f3fe608060405234801561001057600080fd5b506004361061004c5760003560e01c80632f048afa1461005157806357de26a4146100665780639698086b1461007c578063cfae32171461008f575b600080fd5b61006461005f36600461021b565b6100a4565b005b6000546040519081526020015b60405180910390f35b61006461008a366004610234565b6100df565b6100976100f0565b60405161007391906102a6565b60008190556040518181527fc0dd44d3f117c96295a84b2eb7b3f6abe929928d111b030bfb3568f5efa0ff1f9060200160405180910390a150565b6100eb60018383610182565b505050565b6060600180546100ff906102fb565b80601f016020809104026020016040519081016040528092919081815260200182805461012b906102fb565b80156101785780601f1061014d57610100808354040283529160200191610178565b820191906000526020600020905b81548152906001019060200180831161015b57829003601f168201915b5050505050905090565b82805461018e906102fb565b90600052602060002090601f0160209004810192826101b057600085556101f6565b82601f106101c95782800160ff198235161785556101f6565b828001600101855582156101f6579182015b828111156101f65782358255916020019190600101906101db565b50610202929150610206565b5090565b5b808211156102025760008155600101610207565b60006020828403121561022d57600080fd5b5035919050565b6000806020838503121561024757600080fd5b823567ffffffffffffffff8082111561025f57600080fd5b818501915085601f83011261027357600080fd5b81358181111561028257600080fd5b86602082850101111561029457600080fd5b60209290920196919550909350505050565b600060208083528351808285015260005b818110156102d3578581018301518582016040015282016102b7565b818111156102e5576000604083870101525b50601f01601f1916929092016040019392505050565b600181811c9082168061030f57607f821691505b60208210810361032f57634e487b7160e01b600052602260045260246000fd5b5091905056fea2646970667358221220b929e1139fc05141a222eac517e2d0b40588647e7df38c4438806d1bc3c9c30e64736f6c634300080d0033",
    "sourcePath": "/home/yedpr/Alyra/simple-storage-react/truffle/contracts/SimpleStorage.sol",
    "compiler": {
        "name": "solc",
        "version": "0.8.13+commit.abaa5c0e"
    },
    "functionHashes": {
        "greet()": "cfae3217",
        "read()": "57de26a4",
        "setGreet(string)": "9698086b",
        "write(uint256)": "2f048afa"
    },
    "gasEstimates": {
        "creation": {
            "codeDepositCost": "175000",
            "executionCost": "220",
            "totalCost": "175220"
        },
        "external": {
            "greet()": "infinite",
            "read()": "2269",
            "setGreet(string)": "infinite",
            "write(uint256)": "23367"
        }
    }
}